:020000041000EA
:1000000000B5324B212058609868022188439860DF
:10001000D860186158612E4B002199600221596106
:100020000121F02299502B49196001219960352056
:1000300000F044F80222904214D00621196600F024
:1000400034F8196E01211966002018661A6600F04E
:100050002CF8196E196E196E052000F02FF8012189
:100060000842F9D1002199601B49196000215960AB
:100070001A491B48016001219960EB211966A021F2
:10008000196600F012F800219960164914480160C1
:100090000121996001BC002800D000471248134993
:1000A000086003C880F30888084703B5996A0420EC
:1000B0000142FBD001200142F8D103BD02B5186610
:1000C0001866FFF7F2FF186E186E02BD00000240BE
:1000D000000000180000070000035F00212200005C
:1000E000F4000018222000A00001001008ED00E03C
:1000F00000000000000000000000000074B24E7A12
:1001000000200420F7010010CB010010CD010010E9
:10011000C9010010C9010010C9010010C901001077
:10012000C9010010C9010010C9010010CF01001061
:10013000C9010010C9010010D1010010D301001045
:10014000C1010010C1010010C1010010C101001067
:10015000C1010010C1010010C1010010C101001057
:10016000C1010010C1010010C1010010C101001047
:10017000C1010010C1010010C1010010C101001037
:10018000C1010010C1010010C1010010C101001027
:10019000C1010010C1010010C1010010C101001017
:1001A000C1010010C1010010C1010010C101001007
:1001B000C1010010C1010010C1010010C1010010F7
:1001C000EFF30580103800BE00BE00BE00BE00BECA
:1001D00000BE00BEF2EB8871C4400510F04005106F
:1001E0003802001090A31AE71E481F49086006C88D
:1001F00081F3088810471D480068002801D019487D
:10020000F3E70DA40ECC002902D000F012F8F9E7B4
:100210001749184A002000E001C19142FCD116495B
:100220008847164988471649884700BEFDE701C937
:1002300001C29A42FBD37047F0400510E000002055
:10024000001C0020105C05100000042000000420A9
:10025000105C0510001004200010042000000000B5
:10026000704700000000000008ED00E0000000D032
:10027000001C0020A0A60020AD4A00108903001039
:10028000A54A0010F8B5C0460448054B10B5834296
:1002900003D0044B002B00D0984710BD001C002059
:1002A000001C00200000000006480749091A8B10B6
:1002B000C90FC91810B5491003D0044B002B00D04A
:1002C000984710BD001C0020001C0020000000000A
:1002D00010B5074C2378002B09D1FFF7D5FF054B4C
:1002E000002B02D0044800E000BF0123237010BDA2
:1002F000E01E0020000000007CA30110054B10B59B
:10030000002B03D00449054800E000BFFFF7CCFFF5
:1003100010BDC04600000000E41E00207CA30110B8
:1003200010B586B06946164800F0D6FA002802D10A
:10033000012006B010BD134C2268EFF3108172B695
:100340001368002BFCD0BFF35F8F238962899B1A4F
:1003500002D5E28901329B182268BFF35F8F00202B
:10036000106081F31088E2899A4204D06946200027
:1003700001F090FFDCE7200003A901F0C3FFF5E7DF
:10038000E425002008A5002010B58AB004F0D0FCB8
:10039000FA20C00001F0D2FD14F0BAF9041E03D017
:1003A000012040420AB010BD00F048FE08220300C0
:1003B0000C21194801F05CFF0022012311001748AD
:1003C00000F036F876220300009214490022144807
:1003D00000F0EAF900280ED10121002014F07CF988
:1003E000642001F0ABFD0021002014F075F96420B9
:1003F00001F0A4FDF0E70B4807F0AAFA01F0A2FB18
:1004000004AB0293084B094A0093012301945B4219
:1004100001F02CFE30BFFDE708A5002000002050B1
:10042000E4250020890C0010210300106079FEFFF4
:10043000F0B5CE46474680B5884685B031491600AE
:100440000500994607F0AAFA03001633C2011B0300
:1004500013432D4A070013408022D2051343019312
:100460004B469C02F823DB011C401F23F82233403B
:100470001C43920073011340F8221C431203F30340
:1004800013401C43214B30001C438023DB030093AB
:100490008423039401245B050621029300F048FCA9
:1004A0004846062100F044FC30000022012100F003
:1004B00059FC48460022012100F054FC2300B340BF
:1004C0004A461E00230093401E4333004146280045
:1004D000002207F0DDFA330041462800002207F031
:1004E00029FB6B463A004146280007F025FC4246AE
:1004F000944038002B681C432C6005B0C0BCB94642
:10050000B046F0BD80A30110FFFFFF9F0000104424
:10051000F0B545465746DE464E46E0B583B09846B0
:100520000CAB1B78040001933E4B0D00C318170061
:100530001B0D66D007239946043B9A4611339B4610
:1005400000226E007319DB00E318D83300211A6013
:10055000012001F0E1FC2B000121103399407F06BE
:1005600063681942FCD152467319DB00A800E318F6
:10057000D833201807611A604A461A602B000122FE
:1005800008339A4063681A42FCD1036ADB0711D52D
:100590005B467619F600A419D834012000212360A7
:1005A00001F0BAFC002003B0F0BCBB46B246A9463D
:1005B000A046F0BD43461B0667680F42FCD1574674
:1005C00003617319DB00E318D8331F604F461F60C7
:1005D00063681342FCD1036ADB07D9D4019B1F0671
:1005E00063680B42FCD151467319DB00E318D83322
:1005F000076119604946196063681342FCD1036AB8
:10060000C6E7094907F0CAF91F2301001A0014318F
:1006100019408B460240C11C0730194003408A46EE
:1006200099468EE70000E0AF80A30110F0B54E467A
:100630004546DE4657468846E0B51500002283B0A1
:1006400099464B0001934344DB00C318D8331A602A
:1006500004000021012001F05FFC6B009A46434634
:10066000012610339E406D0663681E42FCD143464E
:1006700003229F00019BE7194344DB00E318D833B2
:100680003D611A6004321A604346012508339D40DB
:1006900063681D42FCD13B6ADB0700D576E04B4620
:1006A0001B0662683242FCD103223B61019B43443A
:1006B000DB00E318D8331A6004321A6063682B42F7
:1006C000FCD13A6AD207D21760D1019B0120434482
:1006D000DB00E318D8331A60002101F01DFC012271
:1006E000534613431A0663683342FCD13A6103222E
:1006F000019B4344DB00E318D8331A6004321A60CC
:1007000063682B42FCD1386AC007C0173ED10D9BED
:10071000013B99460D9B002B25D0D8229446019B86
:100720004344DB00E3189C440B239B4606339A4664
:1007300063465A461A6063681A002A402B42FAD16F
:10074000396A484501D18022120663683342FCD1E0
:100750003A61634652461A600C9B090E19540D9B70
:1007600001308342E4D11423019901204144C9009E
:100770006418D8340021236001F0CEFB002003B0C0
:10078000F0BCBB46B246A946A046F0BD019B012085
:100790004344DB00E4181423D8340021236001F023
:1007A000BBFB01204042EAE7F0B54F464646D6463D
:1007B000C0B58360170001230D008AB012AA127819
:1007C000016047600273994601930A336B44040049
:1007D00000933900D02328009046FFF727FF002818
:1007E00020D16B46DB7A602B05D00AB0E0BCBA465C
:1007F000B146A846F0BD5633424639000093280062
:100800002A33FFF785FE0A2001F098FB1A2303AE76
:10081000227B01930096616820686E33FFF706FF24
:10082000002801D00020E0E73388E3810E239A46B8
:10083000A244524673885380B3889380F388D38050
:100840003389138173895381B3899381F389D38168
:10085000338A1382738A5382B38A9382F38AD38250
:10086000737E13760723227B0193009661682068CC
:10087000DA33FFF7DBFE0028D4D152463388303418
:100880005383B378280013770F223379F1781A4015
:1008900009010A435146CA8372791B0912011343A5
:1008A0000B84B379424623704B4639000093F22300
:1008B000FFF72EFE40234246390000932800B5334F
:1008C000FFF726FE4F234246009339002800A53348
:1008D000FFF71EFE012088E7F0B55746DE464E467C
:1008E00045460123E0B58FB0027B019308AB9C46DF
:1008F0000F2464440094F32307008A46416800688B
:10090000FFF794FE08232278134207D000200FB08F
:10091000F0BCBB46B246A946A046F0BD0CAC019364
:100920003A7BF723796838680094FFF77FFE002848
:10093000ECD12378059362780692A178E28807913A
:10094000E178237909031B010B4352BA617992B212
:1009500004920909FA8919431B099B1AC91052000C
:10096000891A0E22914610243A5F5B434A43D21201
:1009700090461224395F1B134B439B139844434604
:10098000980040448030001202F0AAFC844902F032
:100990008CFC5346834CB9444444E517186022004C
:1009A0002B002000290002F05DFC4B4606000820C9
:1009B000185E8B4622002B00C11702F053FC030D7A
:1009C0009C4662460B0313430393030302934B4677
:1009D0000A20185E32005B46C11702F043FC0B068A
:1009E000020A1A430B120298039980185941802376
:1009F00000221B02801859414B46DA88002302F07E
:100A000031FC4B10CA17190008930992114300D109
:100A1000C4E048461021405E32005B46C11702F038
:100A200021FC0290484603910E26805F22002B0095
:100A3000C11702F017FC069EC30B4D041D43330182
:100A4000079E440405980299039A64185541320997
:100A500013430203134380225203D31ADE17F10714
:100A60004E465A0811430022D8070C23F65EF300C5
:100A700012196B41801A994100234B4A02F0F2FB94
:100A8000089A099B02F098F8029003910299039A40
:100A9000D3044C0B1C434B461620185E55132B00F9
:100AA0002200C11702F0DEFB22002B0002F0DAFB6D
:100AB000CB014D164946440E1420085E1C43C11755
:100AC000029A039BA4185D4102F0CCFB4E03C20CBA
:100AD0003243CB14A4185D412B06200A18434B4621
:100AE00012241C5F2912E617250F33012B43220124
:100AF0008018594102F018FC2C4902F0D6FB5346ED
:100B0000494658601E20095E049A09059203511A4D
:100B10004A46274B2020125E43445A438A1A8021BA
:100B20008020C9018C460002624484463800494650
:100B30003030097F0078594340B24343C9126144C1
:100B40009B124B43981280239B039C464B461A21D1
:100B50005B5E6044584380239B019C466044D213F3
:100B6000801350434A46C3135B43127EDB11534349
:100B70001B11C01AC343DB171840C8235B059842FA
:100B80000ADC001302F0ACFBEA21890502F0A1FBAC
:100B9000534698600120BAE61800F2E70020AEE75D
:100BA0000000C842000CFEFF350C00000000C846E3
:100BB00000D4FEFF080010B5002A06D1002904D099
:100BC000034909F003FC002010BD06204042FBE76A
:100BD000450C001030B5184CE7B00500A06802F0D5
:100BE000ADFB04900591606802F0A8FB02900391B0
:100BF000206802F0A3FB114A00900191802106A811
:100C000003F0F8FE8021040003000D4A490026A8E5
:100C100003F0F0FE26A982B2012328000CF070F93F
:100C20000123A2B206A928000CF06AF928000DF0F1
:100C30008FF867B030BDC046B4350020B8A30110AE
:100C4000F0A3011010B510000C00002A08D008F025
:100C500063FD0B4B1B78002B07D02000FFF7BAFF7A
:100C600020000AF0C9F8002010BD0123372220001F
:100C700004490CF045F920000DF06AF8F0E7C04691
:100C80008CA600206CA40110F0B5CE46474680B576
:100C900085B013F03DFD002804D005B0C0BCB946B6
:100CA000B046F0BD13F0BCFC184B194A19491A485C
:100CB00013F0C4FC002826D109F0F4FD04005022F2
:100CC000164908F095FFFF21200009F00DF814499E
:100CD00009F08AFB134B01279946134B134E984694
:100CE00001AC2100300001F00DFB002805D04B467F
:100CF000220023CA23C343461F7013F0FDFC0120CA
:100D000001F01CF9EDE713F043FDC6E73075000074
:100D100004004000A4A40110B4A40110D8C601101E
:100D2000B50B0010B43500208CA6002008A50020CB
:100D300010B54024084A83009A181268C000544035
:100D4000C0222240054CA44663441A60044B9C46D2
:100D50006044416010BDC04604C0014004D0014061
:100D6000004001400B4B80009C46604400290ED19E
:100D700000230431002A00D11900802203685201A7
:100D8000594094460C2360440B40036070470C218B
:100D90000823EFE704C001408000002905D0064B7E
:100DA0009C460223604403607047044B9C46022328
:100DB00060440360F8E7C04604E0014004F00140ED
:100DC000D0231B061B6830B50500581E8341104810
:100DD0005C42844607203023284023408000EC08F2
:100DE000814020000B4D3C3063448000A400415101
:100DF0001B19002A05D08022920194466344196091
:100E000030BDC0229201944663441960F8E7C046A1
:100E10000041014000400140D023F0B5C646040027
:100E20001B0698461B680C4F9B00F8580D001600D7
:100E300000B5044209D1044332002900FC500D20C2
:100E400000F09AF980BCB846F0BD01F017FD4346AA
:100E50001B689B00F858EEE7F0A4002010B50400D2
:100E60000D2000F07DFAD0231B061B6802499B0071
:100E70005A58A2435A5010BDF0A400200123D0229A
:100E800083404021120693629361094A83009A18B5
:100E90001268C0005140C0220A4006498C46634493
:100EA0001A60054B9C460523604443607047C0466A
:100EB00004C0014004D00140004001408023DB0514
:100EC0001868000F7047C0460FB400B5084883B0DB
:100ED00003F082FF049B002B07D005A918000191A5
:100EE00003F0ACFD034803F077FF012003F0BEFDE3
:100EF000C0A401101C3E0510EFF3108072B6034A27
:100F00001368002BFCD0BFF35F8F70472C0100D01B
:100F1000BFF35F8F0022024B1A6080F31088704786
:100F20002C0100D070B5EFF3108C72B60D4D2B680C
:100F3000002BFCD0BFF35F8F0724CB08C618C05C22
:100F400001230C40A3401C000440034207D103438B
:100F50003370BFF35F8F2C608CF3108870BD10006E
:100F6000FFF7B2FF2C0100D0F8B54746CE468846C1
:100F700080B5EFF3108C72B6214D2C68002CFCD09C
:100F8000BFF35F8F9A422CD8D4080727055D061956
:100F900001241740BC402C421FD00721012789465D
:100FA00009E0D408055D06194C4639001440A140FB
:100FB0000C00294211D001329342F2D2012040426A
:100FC000BFF35F8F00220E4B1A608CF3108800284D
:100FD0000FDBC0BCB946B046F8BD2C4310003470DE
:100FE000EEE7BFF35F8F00232B608CF310880120A6
:100FF00040424346002BECD00898FFF765FFC046FF
:101000002C0100D030B5EFF3108C72B60A4C236877
:10101000002BFCD0BFF35F8F07230122CD081940BE
:101020008A40435D93434355BFF35F8F00232360A2
:101030008CF3108830BDC0462C0100D0044A1078D3
:10104000431CDBB2172B00D9102313707047C04626
:101050007012002000B5054B83B0010000931822E8
:101060001F230348FFF780FF03B000BDD0A4011089
:10107000382700200021044B044ABFF35F8F02C3CE
:101080009342FAD17047C046000100D0800100D0E1
:10109000054B064A1360064A136053609360D360A1
:1010A00013615361936170478080808000E400E0A9
:1010B00004E400E01F2318401E3B8340002905D0B4
:1010C000C021044A490053501360704780220149EF
:1010D0008B50FAE700E100E001228240034B1B68DD
:1010E00013405A1E9341D8B27047C04600E100E059
:1010F00001238340014A13607047C04600E200E0CC
:10110000064B10309B688000C358054A00209B1A8C
:101110002F229A424041C0B27047C04600ED00E025
:101120007412002070B50D00EFF3108672B60F4AEE
:101130001368002BFCD0BFF35F8F0D4B10309B6802
:1011400084001B590B4A934203D09D4201D001F009
:1011500095FB074B9B681D51BFF35F8FBFF35F8FFC
:101160000022024B1A6086F3108870BD240100D063
:1011700000ED00E0C1010010F0B557464E46DE46D6
:101180004546E0B585B0060002911700EFF3108BDD
:1011900072B6674A1368002BFCD0BFF35F8F00253F
:1011A000644B5D579A46002D00DAA4E06B00624C58
:1011B00003935B199B009846A146C1444B46524697
:1011C0009B79103613705D4BB2009B680192995861
:1011D0000B1B2F2B34D95A4B994200D0A4E0039B10
:1011E000584A9C46584B6544AD006353434602330E
:1011F0006519E418554B0121043B1B1B1B055B0DB6
:1012000013436B80524BEF71AB80FF23AB71029B9A
:10121000AB604B460B431900484B019A9B689950B1
:10122000BFF35F8FBFF35F8F0022414B1A608BF3D8
:10123000108805B0F0BCBB46B246A946A046F0BD3A
:1012400001200A008243D379BB422FD845464E463F
:10125000130040491B1B5B415943090D3A4B635333
:101260003A4B02356519043B5B1B1B05354D5B0D85
:101270002B4373800426B446E0444444131F1B1BD5
:101280004C46A17102991B05A16049465B0D2B4399
:10129000A380314BE77101431360BDE75800C018CC
:1012A00080002018C679BE422BD902000623D356EF
:1012B000002BF3DA101D8246284880460426764229
:1012C000B446E14450464E46361A3005400D82463B
:1012D00056461C48957106439680039A9446654489
:1012E0001D4AAD00641922604246A371029BA28090
:1012F000E771A36090E701F0C1FA002553465D57FE
:1013000054E7101D824690884005001584464046EB
:10131000D444664604302018301AE0260005400DFB
:10132000360230438046C9E701F0A8FA57E7C046C5
:10133000240100D091A600207412002000ED00E0EE
:10134000C101001000E0FFFF00A1FFFFA412002078
:1013500001BDFFFFAAAA00000148804701BD0000AF
:10136000F0B5DE4657464E464546E0B50C0083B024
:10137000EFF3108972B65F4A1368002BFCD0BFF3FD
:101380005F8F5D4B9A68030010339F00D5595B4A0D
:10139000904695423DD0A5424ED0594EAA1B2F2AC9
:1013A00037D8584A934612689446012261469246BD
:1013B000824011401F2210405246824092460191C5
:1013C0008022514658468150BFF35F8FEFF305826C
:1013D0009346002A32D101232A009A43906884421E
:1013E00008D17CE04B005B189B00F318986884429E
:1013F0002ED01A00062151560029F3DA84424DD02E
:10140000019B002B1FD0C02251463E4B52009950E9
:101410001960394B9B68DD51BFF35F8FBFF35F8F5E
:101420000022344B1A6089F3108803B0F0BCBB462D
:10143000B246A946A046F0BD1500EAE79342CAD0DD
:1014400001F01CFAC7E7802351462E4AD150E0E74D
:1014500006215956002922DB4A0050188000341812
:101460008046A0689860E079D8710620205698716F
:10147000002825DBA488F01A6405241544440019CB
:10148000E0240005400D24022043988052181E4B92
:101490009200B6181A781970B271B1E71300594664
:1014A00000290FD1FF3191711849918016490A78AE
:1014B0009A71174A9B1B5B415A43120D0A709FE7B2
:1014C0001448E2E7144A1549D21A083A5002400D6E
:1014D00001439980124952080A43DA8090E70621B5
:1014E000515613000029B7DA5A46002AEAD1454678
:1014F000DCE7C046240100D000ED00E0C10100108F
:101500007412002000E100E091A6002001BDFFFF61
:10151000AAAA000001BD0000AE12002000F0FFFFEB
:1015200000F8FFFF10B58308040003202040FF24CB
:10153000054AC0009446844081409B0063441A6879
:10154000A2430A431A6010BD00E400E070B5012414
:101550000443EFF30581EFF3108C72B6214A136850
:10156000002BFCD0BFF35F8F1F4B05001F4AED1A05
:101570006D416A43120D1E4D8900AE6852B2765815
:10158000A6421CD00621595691421CD01221595610
:10159000914222D01E215956914220D02A215956DB
:1015A0000324914210D0134B19781A708171BFF344
:1015B0005F8F00220B4B1A608CF3108870BDAB68F4
:1015C0000D4C5C50EFE700246100091989005B189D
:1015D000FF21997109499980E5E70124F4E7022484
:1015E000F2E7C046240100D074120020AAAA00002D
:1015F00000ED00E091A60020C101001001BDFFFF39
:101600001F2110B5091A0248FFF7FCFC10BDC046A7
:101610009CA6002000B5074B83B001000093002278
:1016200005230548FFF7A0FC002801DB1F23181A3B
:1016300003B000BDECA401109CA6002070B504000E
:101640000E001500FFF7FAFC0100200000F006F87C
:10165000A680E580BFF35F8F70BDC046024B9C46FD
:10166000614489000160704740000034F8B5134DB3
:10167000134E2C00FF27B5421ED22368002B0FD03B
:10168000FFF7DCFC01002800FFF7E8FFA780BFF3AD
:101690005F8F0834B4420FD223682500002BEFD1AE
:1016A000FFF7CCFC01002800FFF7D8FF2771BFF33C
:1016B0005F8F0834B442EFD3F8BDC046F01B002062
:1016C000001C002010B50400FFF7B8FC010020004A
:1016D000FFF7C4FFFF232371BFF35F8F10BDC04628
:1016E00010B50400FFF7AAFC01002000FFF7B6FFC9
:1016F000FF23A380BFF35F8F10BDC04610B5040069
:101700000120FFF7A7FC044B9C466044800020604A
:10171000BFF35F8F10BDC04640000034034B9C46B2
:10172000614489000160BFF35F8F7047400000345F
:101730000A4B1968EFF3108072B60A68002AFCD0D1
:10174000BFF35F8F1B68BFF35F8F00221A6080F3C7
:10175000108840BF002000217047C04620A600200E
:10176000F0B5DE4657464E464546E0B585B0EFF348
:101770000582032313409A0011000392B64A52587F
:10178000904601229A409146B44B1A604B46B448A9
:101790004363434608229B5E9A46002B3DDA43464C
:1017A0009B881BB2002B00DBA1E043469B79002BFA
:1017B00000D0F3E0434608241C5F002C23DB4246A4
:1017C0005269630094461B19DB0063449C68DD6822
:1017D000631C00D10FE1A248039984466144826AE8
:1017E0000B69A61A9B1A9E4215D34A46036A1A42EF
:1017F00011D09B4800F0F0FC241A8D41002D02DC32
:10180000C4D1002CC2D040BF05B0F0BCBB46B2462C
:10181000A946A046F0BD0C61EBE7424652695B0069
:1018200093465344DB009B445B469E68DF6800F0B0
:10183000D3FC801BB9410029B1DB002F00DAE5E0C1
:101840005B46884A1B69934200D1D8E041465A461C
:101850000820085E5288000410435A465169984790
:1018600004000D0023002B4300D1CFE0002D00DB4E
:10187000E8E0361BAF4134003D005B469C60DD6014
:101880000021595E002900DA89E743465B6922009E
:101890009C462B0048004018C00060448668C7681A
:1018A000921BBB41002B00DA79E7434666460200F3
:1018B0000094019519810CE07B00DB19DB00F31823
:1018C000009801999C68DD68001BA941002904DB90
:1018D0001A000023D75E002FEEDA5B461F805346C6
:1018E000138043469B881BB2002B00DA5DE743461A
:1018F0001A69EFF3108172B61368002BFCD0BFF3A6
:101900005F8F43469B8842461BB29A4601235B4247
:1019100093801369BFF35F8F00221A6081F31088F0
:101920005346002B00DA40E743465B699C46082398
:1019300043449B4653465F0043465744FF000822FA
:101940009A5E67445E46BC68FD68002A19DB3B006E
:101950000094019567469C4604E01E000023F25E59
:10196000002A0BDB0098019953009B18DB00FB1841
:101970009C68DD68001BA9410029EEDA6346BC467D
:101980001F005346338000217B5E3A809A46002B2D
:10199000D0DA43469B79002B00D10BE70023424667
:1019A0009371434646460821595E08364B1C00D1C8
:1019B00029E747468C46556902E006004B1C17D0C4
:1019C0004B005B18DB00E8180A00E95E43881BB295
:1019D000002BF2DA01235B42DC178360C4606245AE
:1019E000ECD031803B89944603803A814B1CE7D18F
:1019F000B8466446E1E66B1C00D0ECE6F9E65B46CF
:101A00005C69200023699847002821D15B46424643
:101A10001B8813811269EFF3108372B611680029D5
:101A2000FCD0BFF35F8F4246594652880A80424637
:101A3000514651801269BFF35F8F0021116083F31B
:101A40001088ACE6064800F0C7FB24184D4114E7A7
:101A50006568246806E7C046446600203C7005407F
:101A6000004005406117001070B52E4C2569002D0F
:101A700004D00A212C48FFF7F1FD70BD2B4E032145
:101A8000300000F087FBE660FFF7D8FA284B03220E
:101A90009C46D02322701B061B6801216370254BD6
:101AA0006044A3600F23800020610220638063698B
:101AB0004942A18019800231198647311D8358524D
:101AC00018315A5275325C39995218320131995293
:101AD00018320131995218320131995208351832B1
:101AE0009D520231183299521832013199521832EE
:101AF00001319952183201319952183201319952FB
:101B00001832013199520C4B0C49DC6001303562BE
:101B1000FFF708FB01210320FFF7CCFA084B1D60FB
:101B2000A7E7C046BC12002020A6002000400540C8
:101B300040000034FFFF10004466002061170010D1
:101B40003860054000487047BC120020F8B5050019
:101B500018200F0001F02CFC041E3ED01821380084
:101B600001F044FC01216061280000F025FBE560E4
:101B70000600FFF763FAD022267012061268184B8F
:101B800062709C460122BBB2524260448000638175
:101B90009B1820612281A2806380002F0BD07900E6
:101BA0006269C919C9000F4B8918138001331832B3
:101BB0009BB28A42F9D10127B7400B4BB200D450F7
:101BC00030000A492F62FFF7ADFA01213000FFF71C
:101BD00071FA074B9C4665442F602000F8BDC04653
:101BE00040000034FFFF0000446600206117001031
:101BF00038200000124B70B5040098421ED001231B
:101C00000578C668AB400F4A3362B21813600121F1
:101C10002800FFF74FFA28000B49FFF7A1FB290026
:101C2000300000F0C1FA00212378084A9B00606967
:101C3000995001F0FDFB200001F0FAFB70BDC04699
:101C4000BC120020383000006117001044660020EC
:101C5000F8B51F0008AB1B7804001600002B07D155
:101C600000F0C2FA32003B00121A8B41002B4CDB11
:101C70002269EFF3108072B61368002BFCD0BFF31B
:101C80005F8F62690223E15E94464B005B18DB00C4
:101C90006344002901DB1A8862802269BFF35F8FE9
:101CA0000025156080F31088002930DB069A9E60BD
:101CB000DF601A61079A5A615A8801325204520C45
:101CC000161C002A1FD0B0B20A045E801043266999
:101CD000EFF3108572B63268002AFCD0BFF35F8F35
:101CE000A2881A80A1802369BFF35F8F00221A6047
:101CF00085F31088074923788C4601329A40E368BF
:101D000063441A60F8BD0126DDE70020FAE70120F0
:101D10004042F7E73C20000070B5C646010000B520
:101D20000469EFF3108C72B620680028FCD0BFF372
:101D30005F8F02200D5E48696C0080466419E400E4
:101D40004444002D01DB208848800869BFF35F8F81
:101D5000002606608CF31088002D30DBE36063887A
:101D60000598013320615B0406985B0CA2606061FA
:101D70001A1C002B21D090B22B04628018430A69F0
:101D8000EFF3108672B61368002BFCD0BFF35F8FA1
:101D90008B8823808D800B69BFF35F8F00221A60D0
:101DA00086F310880B7801329A40CB6805498C463F
:101DB00063441A6040BCB04670BD0122DBE70120DD
:101DC0004042F7E73C20000010B543890A149342D3
:101DD00033DD53009B184269DB0094460469634479
:101DE000EFF3108C72B62268002AFCD0BFF35F8F2D
:101DF0005A88090494B2090C8A4208D00369BFF3D7
:101E00005F8F00221A608CF31088002010BD8022A2
:101E1000120214435C80012302698371BFF35F8F58
:101E2000002111608CF31088054902788C4693409C
:101E3000C268012062441360E8E70020E6E7C0467C
:101E40003C20000040787047F0B504000D000626E5
:101E50007642F717C64636196F4100B582B08F42F9
:101E600014D811D000F0C0F932003B00121A8B4197
:101E7000002B15DC002B44D02000290000F0E8F9ED
:101E800002B080BCB846F0BD8642EBD900260027E0
:101E900000F0AAF932003B00121A8B41002BE9DD59
:101EA00000F0A2F932003B00121A8B41002B0ADB32
:101EB00000230193144B3200009314483B00FFF7BA
:101EC0002BFF0028D8DBB0460026BC46104A114F35
:101ED0007B6A9C4504D8B96A8845CDD99C45CBD14D
:101EE0001168EFF3108072B60B68002BFCD0BFF3C3
:101EF0005F8F1368BFF35F8F1E6080F3108820BF71
:101F0000E6E7002AB8D0CBE731170010BC1200205A
:101F100020A600200040054070B504000D0000F030
:101F200063F900196941002902DBFFF78DFF70BDDD
:101F3000012001494042F8E7FFFFFF7F70B506002E
:101F400000F052F9FA2204000D00002330000021B5
:101F5000920001F087F900196941002902DBFFF7BF
:101F600073FF70BD012001494042F8E7FFFFFF7F8A
:101F7000F0B5CE46474680B504000D0083B0EFF3C0
:101F80000587002F0DD0364A0020536A8B4203D3B9
:101F9000926A0130A24250D303B0C0BCB946B046E9
:101FA000F0BD304B9846DB689946434648461E785C
:101FB00000F012F90B00494602000436B6007158D1
:101FC00020008E1A2900801A99418F4211DC0ED010
:101FD00020BF234A0020536AAB42DDD3926A01300E
:101FE000A242D9D2E81A421E9041C0B2D4E786423A
:101FF000EED900F0F9F822002B00121A8B41002BC9
:1020000020DB00230193184B2200009340462B0055
:10201000FFF782FE011E15DD114B2E005A6A954214
:102020001CD89B6AA34217D34046FFF7CDFE0C4A4B
:102030000020536A9E42AFD8D0E7581A421E904102
:10204000C0B2A9E7064A0020536AAB42A4D3926A01
:102050000120A242A0D2C5E79542E5D120BFE3E727
:1020600000400540BC12002031170010F0B5CE46EC
:102070004746110080B583B004009C460C9D19436F
:1020800000D16DE06146DB170193009353401E00C1
:10209000019B4B401F0000980199361A8F416346FF
:1020A0000A996B600B9BAC6029612A606B6100F040
:1020B0009BF836184F41002F00DA59E02269EFF300
:1020C000108972B61368002BFCD0BFF35F8F626972
:1020D0000223E15E94464B005B18DB006344002959
:1020E00001DB1A88628022699046BFF35F8F00226D
:1020F0004046026089F3108800293DDB204A9E603B
:10210000DF601A615A885D6101325204520C101C62
:10211000002A2BD082B25880080402432669EFF3CC
:10212000108772B630680028FCD0BFF35F8FA0889C
:102130001880A1802369BFF35F8F0021196087F3A6
:102140001088104823788446013199400120E368C3
:1021500063441960EA6003B0C0BCB946B046F0BD44
:1021600000230126002701229C4698E70120D1E7A1
:102170000126054F7642A1E7012200205242E9E7FD
:10218000611700103C200000FFFFFF7F00487047F0
:102190000040054010B5024A0248FEF7C3FE10BDDC
:1021A00010A501103C27002010B50248FEF72AFFB9
:1021B00010BDC0463C27002000B5054B83B00093FE
:1021C000002203230348FEF7CFFE03B000BDC04644
:1021D00034A501103C2700200300416A0A00986AD8
:1021E000596A8A42FAD17047034B596A0A00986AC1
:1021F000596A9142FAD170470040054070B5040019
:102200000D00124A536A1900966A536A8B42FAD13A
:102210003000190024184D41AB4211D80ED02B00CC
:102220000A494A6A9A42FCD307D1084A02E0516A35
:10223000994202D1916AA142F9D370BDA642EED96A
:10224000012301246442E5175B42E9E700400540B1
:10225000064A536A9942FCD807D1044B02E05A6AF5
:10226000914202D19A6A8242F9D3704700400540F8
:1022700070B516000D0019000400FFF7EFF92900F2
:10228000701C01F0B3F80023E681A5816060A360B3
:1022900070BDC04670B502680400EFF3108572B6D9
:1022A0001368002BFCD0BFF35F8F20896389E2891C
:1022B000C31A01D5561C9B19934208D12368BFF35A
:1022C0005F8F00221A6085F31088002070BD63685C
:1022D000A2899C465043604401F0C8F800221000D7
:1022E0002389E18901339BB29942504141420B401D
:1022F00023812368BFF35F8F1A6085F3108840BF86
:102300000120E3E770B5040008002268EFF31086AF
:1023100072B61368002BFCD0BFF35F8F65892389E9
:102320005B1B02D5E28901329B18002B07D1226882
:10233000BFF35F8F136086F31088002070BD002804
:1023400006D0A28963685543591901F08FF8658951
:1023500000231900E2890135ADB2AA4259414A422F
:10236000154065812268BFF35F8F136086F3108884
:1023700040BF0120E2E7C046F8B5040006200D008A
:1023800000F076F9002842D0364B3749E218534224
:102390005A418023DB039C469205344B62441A6009
:1023A000334B1A6010000B689843FBD12D4B8021F2
:1023B000E3185A4253412F4A5B00490099520620C4
:1023C00000F056F92900C00000F0D0FB0130C3092D
:1023D0001ED1402701226262A362266BF30722D43A
:1023E000E36A254B0620E51800232B60266300F0E6
:1023F0003FF93900800000F0B9FB7022E36A5A40CF
:102400007E2313402B601D4B23630323A364F8BD7D
:102410001B4A93421ED900231A4A1B4F6262A362D1
:10242000266BF307DCD5194B144AE3181A60656A6A
:10243000A26A0620AD01AD1800F01AF9144900F0A7
:1024400095FBAD020100280000F090FB0021FFF792
:10245000D5FEC5E74006800E9F011A003F18030015
:10246000B9E7C0460080FCBF08C0004000E0004063
:1024700000F0004050A600202C10000001030000D6
:10248000FEFF0000FFFF0000C0FF3F0030300000F3
:102490004E0E0000F8B5DE464E4657464546E0B5BE
:1024A0008B4605000A991800160000F05FFB0A9B96
:1024B0006C001F02324B64199C46A400644463689C
:1024C00081469F4200D967602B1FDBB29846012BE3
:1024D00030D9C02380229B01E31812011A60294BD6
:1024E000AD0059599A4600291BD1226876017240E5
:1024F000E0268023164042465B01E3181E60012A55
:1025000030D9802380229B01E31812011A605346C0
:102510004A4667605A51F0BCBB46B246A946A0463F
:10252000F8BD586900F022FB431C5800C01803385E
:10253000FDD2DAE75B46012BCBD1C02303229B01FE
:10254000E3181A60023AA3681A42FCD0E02322681A
:10255000760156401E4080230A4A5B019246E318EA
:102560001E60AD005A462168514003220A401A609D
:1025700001225B469A40A3681A42FCD0C1E7C046DC
:102580000080004044270020F0B546464F46D6461E
:10259000C0B51F00344B44009C462418A40064447A
:1025A000636888461600FF2B02D880235B006360B7
:1025B000031FDBB29A46012B30D9C02380229B0136
:1025C000E31812011A60294B8500595999460029D0
:1025D0001BD1226876017240E026802316405246C5
:1025E0005B01E3181E60012A30D9802380229B0101
:1025F000E31812011A6080235B0063604B465F5151
:10260000E0BCBA46B146A846F0BD586900F0AEFA43
:10261000431C5800C0180338FDD2DAE74346012BAB
:10262000CBD1C02303229B01E3181A60023AA368AE
:102630001A42FCD0E0232268760156401E408023D7
:102640000A4A5B019146E3181E60850042462168F4
:10265000514003220A401A60012342469340A26877
:102660001342FCD0C1E7C046008000404427002050
:10267000014B8000C058704744270020F8B5040083
:1026800020481D0017000E0000F070FA010038000D
:1026900000F06CFA069B29041B0319432368002BE6
:1026A0001EDB194B194DE21853425A4180235B013E
:1026B0009C461203164B62441A60164B1A601700B0
:1026C0002B689F43FBD1144B2660E2182123A060A6
:1026D00013602368002BFCDA0823E1601360F8BD67
:1026E0003F2322681340B342DBD1A3681B051B0DB7
:1026F0008342D6D1EE22E368D20213408B42D0D17E
:10270000EDE7C046001BB7000040FDBF08C0004019
:1027100000E0004000F000400430000010B514005C
:1027200080221B4BD2051A6000281AD00123194AB7
:102730001843194BDA61194A42401A625962986289
:102740008022134BD2051A601549164A1160E02207
:10275000D2041A60002C07D18022134B12061A6093
:1027600010BD0D4BD861EBE763011B1B9A00802362
:10277000121912015B049A4200D30C4A0C4B1A60E6
:10278000054B5A608022084BD2051A60E8E7C04624
:1027900000B00540D3C007B0008005402D3FF84F82
:1027A000FCFF01000820014000A00540FFFFFF00E2
:1027B000C83500208023024A9B000B43D362704738
:1027C00000800540142310B50100188804331B88CD
:1027D000984710BD162310B50100188802331B88D6
:1027E000984710BDF8B54746CE4680B50F1E19D0A4
:1027F00014239946043304000025012698464B46CD
:102800001888434621681B88984701C4431E984195
:10281000013540420640AF42F1D13000C0BCB9465C
:10282000B046F8BD0126F8E7142370B504001888F7
:1028300004331B880D000549984703000020002C35
:1028400001DB0130A04029009847C04655420000F6
:10285000AA23064A1B0113608D235B00D360044941
:10286000044B19605368002BFCDA704700400240AB
:1028700000B0FA00006002407047C04610B5014841
:10288000FEF722FB48A5011070B5074D074EB54273
:1028900009D20024013E761BB60808CD98472300D4
:1028A0000134B342F9D170BD38A3011074A30110F3
:1028B00070B5074D074EB54209D20024013E761B84
:1028C000B60808CD984723000134B342F9D170BD52
:1028D0006CA3011074A30110054B064A06491A6047
:1028E000064A074B1A6010000B689843FBD17047EB
:1028F00000E00040BFCDFBFE08C00040FE7F3C0072
:1029000000F00040044BDB6C002B03D18022034B12
:10291000D2021A607047C046000011504C2011507E
:10292000044A054B1A60054A1368DB018033FBD16A
:102930007047C046FFFFFF0100F0004008C00040A4
:102940004022034B9A675A671A67DA667047C04697
:1029500000F0014010B5FEF78DFB10BDF8B52D4914
:102960002D4C2E4D641AA6103200302E00D9302284
:102970002800920000F07AFDBC2C41D80123711C84
:1029800008009C46264A30293DD92F272C19640778
:10299000E30FBF1B052F19D9302917D8002B36D0CC
:1029A000B1006A506146CC1AF3189B006108EB181D
:1029B000C900C9181A605A6008338B42FAD1012342
:1029C0002100994346188C421AD0711CB300EA507A
:1029D000302915D089006A50B31C2E2E10D09B00D0
:1029E000EA50F31C2D2E0BD09B00EA50331D2C2EE9
:1029F00006D09B00EA50731D2B2E01D09B00EA509D
:102A0000084B9D60F8BD2F339B1B9C46BDE73000F3
:102A1000C8E7C04600010010C001001000000020FF
:102A2000C101001000ED00E0002310B5294C82B078
:102A3000A367FFF70DFF0122274B1A60636C012B80
:102A4000FCD10322254B1A60224A936B012BFCD147
:102A5000013300930121224A22480433FFF70EFE7E
:102A6000052301210093204A2048FFF707FE00229A
:102A7000022104201E4BFFF787FD002201210520C3
:102A80001C4BFFF781FD0022002107201A4BFFF7A6
:102A90007BFD002200210820174BFFF775FD8023E6
:102AA000DB000093002200210920134BFFF7F2FC0A
:102AB0000022104B00210620FFF766FD0420FFF7DF
:102AC000D7FD0E4900F052F801000020FFF772FE1A
:102AD00002B010BD008000403CB0004030B000406B
:102AE000002F685900800240008C864700C00240D9
:102AF000001BB70040597307006CDC0240420F0016
:102B000001480421014B1847E0120020E52700107E
:102B1000014B9B6818470000E0120020124A936F97
:102B20009B0815D29066D166002905D0FFE7FFE724
:102B3000FFE7516F106F704704B580210906C21777
:102B40005140002800D0C84317F08EFB002104BD7F
:102B5000F0B5146E556E576F166FFFF7E3FF1466EE
:102B6000556657671667F0BD000000D0114A936F95
:102B70009B0813D210665166002905D0FFE7FFE7D6
:102B8000FFE7516F106F704704B5002801D0002097
:102B9000C04317F069FB002104BDC046F0B5146EB8
:102BA000556E576F166FFFF7E5FF1466556657674A
:102BB0001667F0BD000000D094464A4A926F920812
:102BC000624601D228E0C046F0B5464E346E756EBE
:102BD000776F366F00F020F89446424A14665566C7
:102BE000576716676246F0BD94463E4A926F920858
:102BF000624601D254E0C046F0B53A4E346E756E6E
:102C0000776F366F00F04CF89446364A1466556676
:102C1000576716676246F0BD002B24DB11D00029F0
:102C20003EDA00B5C943404200D1013100F038F826
:102C3000C943404200D10131DB43524200D101334C
:102C400000BD002AEBD1002801D1002905D00020C9
:102C5000C90FC90701D1C043410800B517F0F4FA04
:102C60000022002300BD00B500290ADBDB435242ED
:102C700000D1013300F014F8C943404200D10131C2
:102C800000BDC943404200D10131DB43524200D173
:102C9000013300F005F8DB43524200D1013300BD9F
:102CA000002923D1002B18D1002A0CD0BC460D4F8F
:102CB00038667A6600210023FFE7FFE7FFE77A6FB7
:102CC000386F67467047002801D00748010000B5FB
:102CD00017F0BAFA0022002300BD02000B0000200A
:102CE00000217047000000D0FFFFFFFF002B00D045
:102CF000BFE0130C28D1002AE7D080B4114F396609
:102D00007A66FFE7FFE730B4040C7B6F396F1B0472
:102D100023433B667A66FFE7FFE7FFE7C04684B2DE
:102D20007B6F3D6F1B0423433B667A66FFE7FFE73B
:102D3000C04600232C042D0C7A6F386F00196941AE
:102D4000B0BC7047000000D0F0B594460025140ECA
:102D500001D112020835140F01D112010435940F6C
:102D600001D192000235D40F01D152000135D40BAC
:102D70000134254F7C66254C3C660E0C93B2FFE770
:102D8000FFE7FFE73C6F6643360C7703BE467343AD
:102D9000DF0B5B04C01AB941130C7343DB18C91A6B
:102DA000CE086643360CB64493B273431F0F1B0123
:102DB000C01AB941130C73431F0B1B05C01AB9414C
:102DC000860D8F023E436643360C092D24DB520AE2
:102DD0007243801A7703460A6643360C16235B1B40
:102DE000DE40DF40BF1964466643821B70460435EF
:102DF00006330100D940A840C01900D30131A242D6
:102E000006D20023F0BD0000000000D0FFFFFFFF4E
:102E1000121B0130F3D3F1E709277F1BFE40644604
:102E2000A2B27243801A00D20139220C7243130CF1
:102E30001204821A99410B007046043513370100C1
:102E4000F940A840801900D30131002B02D1A242E1
:102E50000AD2F0BD013000D30131121BFAD2013B7E
:102E6000F8D1A24200D2F0BD013000D30131121BD3
:102E7000F7E7F0B51C0C00D080E00CB400251C0A6C
:102E800004D11B02160E3343120208351C0B04D169
:102E90001B01160F3343120104359C0B04D19B0018
:102EA000960F334392000235DC0B02D192185B413E
:102EB00001351C00971864410134464F7C66464C2E
:102EC0003C660E0CFFE7FFE7FFE7C0463C6F66433A
:102ED000360C7703BE4697B27743C01B00D2013948
:102EE000C01B00D201399FB27743C91BC91B170C05
:102EF00077437E04FF0B801BB941CE086643360C36
:102F00000C2D33DBB644120B1F053A431B0B97B253
:102F10007743C01B00D201399FB27743C91B170CFE
:102F200077433E043F0C801BB941860D8F023E4320
:102F3000664329277F1BFE400C3D7746AF40BF19F3
:102F400030BCA2B2ABB272437343801A9941220CD7
:102F50007243130C1204801A994102000B000137CE
:102F6000001BA941F9D2781E0021F0BD0C277F1B60
:102F7000FE4077467F0BAF40FF19E0E700245D1C61
:102F800007D0144F7D663966FFE7FFE7FFE7FFE7ED
:102F90003C6F95B29EB265436643401BB141150C30
:102FA0001E0C6543664336042F0C3E432D04401B24
:102FB000B141994204D202000B0020000021F0BD73
:102FC00001D19042F7D3801A994101349942F2D34A
:102FD000F6E70000000000D0FFFFFFFF484041403F
:102FE000484018B4134B5B68019308BD18B4114BEB
:102FF0001B68019308BD94460F4A926F920805D250
:10300000624618B40B4BDB68019308BD0A4AF0B561
:10301000146E556E576F166F6246FFF7F2FF064A41
:103020001466556657671667F0BD18B4014B9B6868
:10303000019308BDE01D0020000000D0FFB5504006
:103040004240504059404B40594000E0FFB5154FB9
:103050004C00640D03D0BC4204D10C0314D80020F2
:10306000090D09055C00640D03D0BC4204D11C03AA
:103070000AD800221B0D1B0501264B4009D44B40EA
:1030800003D58B4200D18242FFBD9942FCD19042D0
:10309000FFBD0B43DB1803431343F5D0C943491865
:1030A000FFBD0000FF07000000B5FFF7CFFF804124
:1030B00000BDC04600B5FFF7C9FF01D9002000BD23
:1030C000012000BD00B5FFF7B9FF01D9002000BD08
:1030D000012000BD00B5FFF7B1FF804100BD012018
:1030E00040054A00121804D85A00121801D80020CE
:1030F00070470120704700000021002805D170476B
:10310000C1174840401AFAD0C90713B5064B1B68CF
:1031100098470CBC441CA2401005120B0349091B24
:1031200009051943114310BD1CA500201F04000010
:1031300010B54C00620D8023D218DB00D21A5B055B
:103140007E2A10DD9E3A13DACC1709034908194389
:103150005242D140640001341532202A05DAD040B1
:103160000843604310BD002010BD0846604310BDF9
:10317000C80FC018013810BD18B4024B5B6A019328
:1031800008BD0000E01D002010B50148FDF79CFEC1
:1031900054A50110132370B51D78012D15D039DD0C
:1031A0001E48FFF717FB06001D48FFF713FB1D4CD9
:1031B00080223100200000F059F9022D27D01A4852
:1031C000FFF700FB194B186070BD194B154C2360BD
:1031D0006360A360E36023616361A361E3612362D1
:1031E0006362A362E36223636363A363E3632364B1
:1031F0006364A364E36423656365A365E365236691
:103200006366A366E36623676367A367E367094BA7
:10321000A364D4E7034C074BA364D0E753440000F6
:1032200053460000E01D00204C3300001CA5002088
:10323000893100103932001007B5604601880A0A4A
:103240000230DF2AFAD1C9B2820804D3028840884A
:103250000004104300E00068014A5050039007BD8D
:10326000E01D002051434343C9188C46110C83B222
:103270004B4310B4040C614392B280B2504362439A
:103280001C041B0C001910BC59411304120CC0186B
:1032900051416144704700004840414048400E4B56
:1032A0005B6818470C4B1B6818470C4A936F9B08C8
:1032B00002D2094BDB681847F0B5146E556E576F94
:1032C000166FFFF7F6FF054A1466556657671667CF
:1032D000F0BD014B9B68184720A50020000000D0DE
:1032E000C10FC90700D54042002817D0F44603B4E7
:1032F0000B4B1B68984706BC81409E38404280318A
:1033000007D20B0607D04900490AC00510430843FD
:1033100060470130F8E7490A8902F5E77047000085
:103320001CA50020034A1047C2179142FAD0024B55
:10333000DB6D1847E132001020A50020014BDB6F48
:103340001847000020A5002010B50148FDF7BCFD7E
:103350000CC80110132310B510481C78FFF73AFA77
:103360000100012C0AD003DD80220D4800F07EF818
:103370000C48FFF727FA0C4B186010BD084C54227C
:10338000200000F073F82300084A803321680029E8
:1033900000D122600434A342F8D1E9E7534600008B
:1033A00020A500204C3300001CA50020493300104C
:1033B00070B504000A4E300016F0AEFF200016F083
:1033C00021FA0500300016F02FFF002D05D0054B27
:1033D0002C199C4201D8280070BD0348FDF774FDEC
:1033E000F01B0020000004206CA50110F8B50600B9
:1033F0000C000C4F380016F08FFF2100300016F043
:10340000C7F90500380016F00FFF7443002D05D0F2
:10341000054B2C199C4201D82800F8BD0348FDF744
:1034200053FDC046F01B0020000004206CA50110D5
:1034300070B50400054D280016F06EFF200016F050
:10344000EBF9280016F0F0FE70BDC046F01B00201E
:1034500001480421014B1847F0120020E527001015
:10346000014B1B6818470000F0120020014B5B68FD
:1034700018470000F01200209A4200D2885470478A
:103480007047C046F8B557464E464546DE46E0B55D
:1034900099460A9B07009A460D9B8846934615005D
:1034A0000B9E9B0710D10C9B9E420DD29D1B1400BE
:1034B0000E005D4422004B46013431002020B84705
:1034C000A542F7D1B0460B9E002E27D04446751971
:1034D0005346AA1B013E985D21004B46B847002E7B
:1034E000F6D123002C0098460D9B9B070FD55B4619
:1034F000E51A0C9BAB420AD94646984622004B4639
:10350000310020200135B8470134A845F6D8200005
:10351000F0BCBB46B246A946A046F8BD2C00E3E786
:10352000F0B54F464646D646C0B584B098460EAB79
:103530001B78129F994694460D9C109B119EBA07CA
:1035400025D4002E4BD19C4200D3BFE001223A404B
:1035500092461F2C00D9B8E00C9A551E302201E08B
:10356000202C03D001342A55A342F9D85246002A10
:103570000DD0A6420BD9202C44D00C9A551E3022D7
:1035800001E0202C3ED001342A55B442F9D1FA068C
:103590004DD57A053FD4002C39D10F9B102B00D18B
:1035A00079E00F9B022B00D18AE030230C9A012492
:1035B00013704B46002B3FD02D230C9A135501342A
:1035C0000C9B624600930397434602960194FFF7D3
:1035D00059FF04B0E0BCBA46B146A846F0BD01228E
:1035E00015003D40AA463A422FD04A46002A02D151
:1035F0000C323A4200D0013E9C42BAD21F2CABD9C9
:10360000202E27D92024FA06DAD57A0503D4A3423E
:103610002DD0A6422BD00F9B102B32D0022B20D0C6
:10362000202CCDD030220C9B1B191A700134202C79
:10363000C6D04B46002BBFD17B070DD43B07BFD56F
:1036400020230C9A13550134BAE79C429FD21F2CB9
:1036500000D881E720249AE72B230C9A13550134D4
:10366000AEE7202CACD00C9B1B1901343AE0631E52
:10367000012C92D00F9A102A2AD0022A2FD01C0097
:10368000D0E7BB060ED4202C9AD00C9B1A1901341B
:1036900078231370C4E7BB060DD478230C9A012459
:1036A0001370BFE7202C00D18AE758220C9B1B190E
:1036B0001A700134B4E758230C9A01241370B1E74F
:1036C0000C9A603301241370ACE7202400265EE7D7
:1036D000023CBA06E9D40C9A12191C00D8E70C9ADD
:1036E0009246534462221A709AE7C04610B50028E9
:1036F00000D110BD01F024FBFBE7C0460B0010B564
:10370000002802D049681B68984710BDF0B5DE4616
:1037100057464E464546E0B59BB09B46249B89469E
:103720009846259B0B900C924046424619009A46BB
:10373000FFF7D5FC002800D0D8E0012240465146D2
:10374000774B5242FFF7C6FC002800D0CEE00122A2
:1037500040465146734B5242FFF7A6FC002800D06A
:10376000C4E00022002340465146FFF79DFC00289C
:1037700000D0B9E1424653460A9209938023289A21
:10378000DB001A400E92289A1A4201D10623269392
:103790000A9A099B1600134300D0C7E0289B002516
:1037A00000261B0500D49BE100230D93269A0D9B58
:1037B0009A4200DC9FE1D01A431E26938023289A68
:1037C000DB001A430023002728920D93279B002437
:1037D000BB4200D9DC1B0223289A1A400E92289A79
:1037E000134203D07B427B415B421C400D9B002B6C
:1037F00007D00A9809992A003300FFF7FCFB0A90CA
:1038000009910022002340465146FFF74DFC002855
:1038100005D0802000068446099961440991289AC0
:10382000414B0B9D13400493269B0A9A0293099BDC
:1038300003940092019349465B4628000C9A00F0DD
:103840008BF90400002F62D0289B220098061F23CA
:10385000C0179843631C984649465B466530A847A5
:103860000D9B0025DA179C18DB0F9A465440013F48
:1038700001E0202D13D00AAA94461F2320006344A0
:103880000A2101355E19FFF771F9303131702000DE
:103890000A21FFF76BF926000400092EE9D8052359
:1038A0000693002304930A330393534605970B9F13
:1038B000029312AB009342465B464946380001959D
:1038C000FFF72EFE0E9B0400002B20D00C9BC51A88
:1038D000279BAB421BD91E0022005B464946202095
:1038E0000135B8470134AE42F6D810E0289B424675
:1038F0000493279B49460393269B0B9802935346B8
:10390000009201935B460C9A00F026F90400200017
:103910001BB0F0BCBB46B246A946A046F0BDC046AF
:10392000FFFFEF7FFFFFEFFFFFF7FFFF734B099FE5
:103930009C467800400D6044FFF7E2FB704A714BF3
:10394000FFF773FB704A714BFFF750FB3B03704A64
:103950001B0B1A4304000D00300011006D4B0022B8
:10396000FFF73FFB6C4A6D4BFFF75FFB02000B005C
:1039700020002900FFF73AFBFFF7DAFB0D90FFF775
:10398000BFFB674A674B04000D00FFF74EFB0022A8
:10399000654BFFF72BFBFFF7CBFB644A0600644B3C
:1039A00020002900FFF741FB040030000D000F96B6
:1039B000FFF7A6FB5F4A604BFFF737FB02000B00E7
:1039C00020002900FFF70DFB02000B0006000F008E
:1039D000FFF72BFB320004000D003B0030003900E4
:1039E000FFF704FB002210901191544B2000290096
:1039F000FFF701FB0022524BFFF7F8FA02000B0021
:103A000020002900FFF7F7FA00224E4BFFF7EEFAED
:103A100002000B0020002900FFF7EDFA0D008021C5
:103A2000040032003B000020C905FFF7DAFA02006B
:103A30000B0020002900FFF7D9FA02000B001098B4
:103A40001199FFF7D8FA0022314BFFF7CFFA3E4B1E
:103A50000F9C9C46644400222305FFF7E6FA05000C
:103A60000E0002000B000A980999FFF71DFB0028C1
:103A70000AD00D9B2800013B31000D930022304BF2
:103A8000FFF7B9FA05000E00C6270D992B00633128
:103A90008F42BF4128997F420437090500D495E63B
:103AA000334300D182E6099C284A2100284B0A981A
:103AB000FFF708FB002808D000222100254B0A98B8
:103AC000FFF7F2FA002800D070E6269B002B00D109
:103AD0007CE60E9B5A1E9341269AD31A269375E6CE
:103AE000002304270D9371E643460A9380231B06A7
:103AF0005344099342E6002326935FE601FCFFFF4F
:103B0000FB799F501344D33FB3C8608B288AC63FCC
:103B10000000F03F0000F83F61436F63A787D23F8A
:103B200071A379094F930A400000E03F1655B5BBD9
:103B3000B16B0240EF39FAFE422EE63F00002C4006
:103B40000000244000001840FF0300002D431CEB40
:103B5000E2361A3F80842E41F0B54E46DE46574687
:103B60004546E0B597B09946209E219F229B83460B
:103B7000984607910C923B00320030003900FFF765
:103B8000AEFA002800D0A9E1012230003900CA4B6A
:103B90005242FFF789FA002800D0E1E0012230000C
:103BA0003900C64B5242FFF795FA002800D0B7E023
:103BB000002230003900C24BFFF78CFA002800D0F9
:103BC00099E0002230003900BE4BFFF76DFA002863
:103BD00000D090E00022002330003900FFF764FAA3
:103BE000002800D0B1E000230D93249B5B0501D495
:103BF0000623984608AB9C461722002430234146F2
:103C0000624404E0013413550139202C01D0092904
:103C1000F8D8884630003900FFF78AFA4346DA00C0
:103C2000A94B05009B181A685B6808920993FFF777
:103C300067FA02000B0030003900FFF7D2F9089A4A
:103C4000099BFFF7F2F90A900B91FFF795FA82466C
:103C5000FFF752FA02000B000A980B99FFF7C1F91F
:103C600000229A4B0A900B91FFF734FA002800D1FA
:103C7000C0E001239C46E2445046FFF73DFA0200B3
:103C80000B0008980999FFF715FA002802D00023C5
:103C90009A4601354346002B6AD008AB17269C464E
:103CA00008956644554614E001235B4243440A21CB
:103CB00028009A46FEF75AFF01343031371939701F
:103CC00028000A21FEF752FF092D00D8D0E0D04687
:103CD0000500202CE8D10EAB98460323249A13400C
:103CE000012B00D196E02023249A01930392239A7A
:103CF000434602921EE0249B58460493239B009661
:103D00000197039343460C9A029307994B46FFF79A
:103D1000FDFC17B0F0BCBB46B246A946A046F0BDBC
:103D2000249B5B070ED40322694B249901920391D3
:103D300023990291009358464B460C9A0799FFF736
:103D4000A1FBE6E70422634BEFE73B0032000020D3
:103D50000021FFF746F9012306000F000D9344E709
:103D6000249B0393239B0293042301935A4BE1E783
:103D70002800FFF7C5F902000B0030003900FFF7FB
:103D800030F9524B002206000F00FFF78DF90EAB01
:103D9000984600280AD10022300039004B4BFFF72B
:103DA00099F9002802D1EB0700D50135202C94D0D9
:103DB00008AA94461723280063440A2101341E19D7
:103DC000FEF7ACFE3031280031700A21FEF7A6FE66
:103DD000051EEBD10323249A1340012B1BD0202C6A
:103DE00000D180E70D9B002B35D02D224146631C6E
:103DF0000A5579E700220A980B99344BFFF754F9DA
:103E0000002800D046E75346002B51D101239C46A1
:103E1000E2443FE72024239B002BE0D00D9B002BA6
:103E200003D1249A0C33134202D0239B013B2393EA
:103E3000239BA342D3D908AB9C461722302362446C
:103E4000202C00D14FE72399013413558C42C6D062
:103E5000202CF8D147E7249B5B0724D4249A230025
:103E6000120700D440E72022414601330A553BE7C0
:103E70005746089D202C00D12DE7220030214046D6
:103E8000002F09D00132B154202A00D123E7D343B7
:103E90001B191B18002BF5D10EAB98462E2341465B
:103EA000541C8B5482E72B224146631C0A551BE7A6
:103EB000DB0700D4EEE6A9E7FFFFEFFFFFFFEF7F90
:103EC00065CDCD4165CDCDC110A801100000E03F0A
:103ED00018A601101CA6011028A60110249B03930C
:103EE000239B029303230193004B23E724A6011095
:103EF000F0B5DE464E4657464546E0B59FB01C003D
:103F0000289B91460993C94AC94B8B4608901A6071
:103F1000002900D118E2002320789A46002800D119
:103F20001AE226001D005C460AE02A006F1C4B4680
:103F3000089D2100A8473D0001363078002870D048
:103F40002528F2D110239B46083B9A46043B98460D
:103F5000023B00219C46721C107816000300203B97
:103F6000DBB2102B03D8B34F9B00FB589F460300D6
:103F7000303B092B32D900230A932A2868D000232A
:103F800098462E283ED00300683BDBB2122B1CD88B
:103F9000A94A9B00D3589F46012301321943DBE70E
:103FA000634601321943D7E7434601321943D3E749
:103FB0005B4601321943CFE7534601321943CBE741
:103FC00080235B007078194301360300253BDBB288
:103FD000532BAAD8994A9B00D3589F460027030029
:103FE000B800C01901364000C018337830381A00C4
:103FF000303A0700092AF3D90A901800002398469E
:104000002E28C0D180237078DB0019430300303B99
:10401000721C092B00D8A1E12A2800D1B2E11600B8
:10402000B1E7A346AA462C00D14503D801235B4241
:104030004B449A464B46524659460020089DA84795
:1040400020001FB0F0BCBB46B246A946A046F0BD5A
:10405000099B40CB0A96002E03DB50780993561C2F
:104060008DE72838014370420A9009935078561C16
:1040700085E7782800D1DFE1582800D14CE26F288D
:1040800000D14FE3622801D100F030FC10230A0078
:104090009A430B92692801D000F0A9FC0A230C93E3
:1040A0004B0500D5D0E10B9A802311009B001940ED
:1040B0008B461A4200D0A1E2802311005B00194018
:1040C0008A461A4200D0B6E313005B0600D5EDE243
:1040D000130009991B0601D400F076FC08C91BB235
:1040E000D8171A18424092B209919346DA0F1292E9
:1040F000002B09D1802310220B99DB000B40914348
:104100000B91002B00D0E4E20B9A6123920600D5BC
:1041100041230EA91F228C46DBB262440A3B5F4654
:104120001395A34655460C9CB2460D9316000AE023
:104130003033DBB201357355A74200D2EDE2202DBA
:1041400000D1EAE2070021003800FEF70FFDCBB2F4
:104150000929EDD90D9A94466344DBB2EAE780233E
:104160009B007078194301362FE77078682800D1DA
:10417000CDE180230136194327E770786C2800D100
:10418000BFE180235B00194301361EE7462800D1BA
:104190009BE10722099B0491073393430A9A190074
:1041A0000392424602920CC9089800920193099129
:1041B0002A004B462100FFF7CFFC01360500BCE684
:1041C0002A006F1C4B46089D21002520A847013678
:1041D0003D00B2E68B0700D4ADE1099B2A009A4668
:1041E0006B1C9846534601CB21009A46089F4B46CC
:1041F000C0B2B8470A9B9C466544012B00D886E2B2
:10420000089B4746B04626004C4699463A00230094
:10421000013731002020C847AF42F7D1A1465346AD
:10422000340046460993013687E6C046F13E001049
:10423000C035002030A6011074A60110C0A60110E0
:10424000099B04CB9B4643460992002B00D1C6E054
:1042500013789C46002B00D1BDE34346013B099AED
:104260000133D0180A9F130001E0834203D05A782B
:104270000133002AF9D1099A0A979B1A0B938023DC
:104280000A00DB001A400C92194204D00B9B4345F4
:1042900001D943460B9302231A000A400D920B42A8
:1042A00000D187E16046002800D168E10C9B002B1B
:1042B00000D10DE1A844C246099B57465B1B9846B6
:1042C000089BB2462A0026004C46994609E0230086
:1042D0003100551CC8474346585D002800D126E1EF
:1042E0002A009742F3D1A1463D00340056460D9B6B
:1042F000002B00D043E15B46013609931DE6099B84
:104300001A0008CA9246002B48D0212211438B463E
:104310000EA884461F216144099500220F27A44658
:104320000D0002E0202A0CD00B003C001C402000B5
:104330003730092C00D807380132A85419090F2B3F
:10434000F0D86446099D32E0DC4B207808930023C6
:104350009A46002800D0E4E5002465E643460600BE
:104360000A9F9800C0180132400080191678030097
:1043700030003038303B0928F3D930009846160019
:104380000A9700E6099B023604CB9046D24340468A
:10439000D2171040804609933078F4E510220800C7
:1043A000904311321043834600224905B0D55B4645
:1043B0000693082305934346049310230393002395
:1043C000029316AB019200932A004B4621000898F5
:1043D000FFF7A6F85346050001360993ADE51378BB
:1043E0009C46002B00D1F7E202235B4237E72023F3
:1043F00002009A43472A04D180231B011943022358
:104400009843452801D1202319430722099B049191
:10441000073393430A9A19000392424602920CC949
:1044200008980092019309912A004B462100FFF75A
:104430006DF90136050080E510230C930C230A006A
:104440009A430B924B0503D501230B9A9A430B9287
:10445000692800D127E6642800D124E60B9A80233E
:1044600011009B0019408B461A4200D066E1802360
:1044700011005B0019408A461A4200D039E213004D
:104480005B0600D53CE113001B0600D4A6E2099BA5
:1044900004CB1204120C934609935B46002B00D008
:1044A0009AE10B9A1033110099430B91520500D4F5
:1044B00092E100239A460B9B06930A9B0593434681
:1044C00004930C9B039300230CE12023194360E623
:1044D000099B0A9A5B1B98464B4691461F00B246C1
:1044E0002600089C2A003B003100A04743460135C6
:1044F000585D0028F6D14A463400B94656460A921D
:10450000F5E6C0239B00B078194302365DE5C02371
:10451000B0781943023658E50C230A009A43143345
:104520001A43103B0B920C934B058DD496E7A14692
:1045300034005646DBE60A9A012A00D853E26B1E85
:104540009F18089BB04626004C4699462A00230037
:10455000013531002020C847BD42F7D1A1463400C3
:104560004646099B3A0001CB210098467D1C4B46EC
:10457000089FC0B2B847434601360993DDE40B9B60
:104580000A9AA8469A4200D8B5E694466544ED1AC0
:10459000089B4746B04626004C4699463A00230001
:1045A000013731002020C847AF42F7D1A14634007F
:1045B0004646A0E60B9A0A99531C914200D814E291
:1045C0004B199B1A1F00089BB24626004C46994681
:1045D0002A002300013531002020C847BD42F7D111
:1045E0000A9BA14601330B93099B34001B78564666
:1045F0009C466046002800D058E67CE60722099BCE
:1046000007339343013294469C4462465F680992A3
:104610001A68FB17109311931098119903005340D7
:104620000E930B007B400F9394460E9A0F9B121A29
:104630008B410E920F93FB0F6246129300233A4375
:104640009B463DD00B9A6123920600D54123002260
:10465000DBB20EA90A3B8C4692460D9343461F32AD
:1046600062441395159655460E9E0F9FA24690469E
:104670000C9C14930CE03032D2B2434601355A55AB
:10468000BB4500D18AE1202D00D18AE106000F0050
:104690002200002330003900FEF7A6FAD2B2092A20
:1046A000E9D90D9B9C466244D2B2E6E7FF23099903
:1046B00004C913401A00099117E5C046813400105F
:1046C0000B9A1033110099430B915205BAD5002370
:1046D0009A460B9B06930A9B0593434604930C9BB7
:1046E0000393129B02935346019316AB2A00009347
:1046F00021004B460898FEF713FF013605001CE425
:10470000FF22099B02CB11408B460993C5E6534615
:10471000454609930136FFF710FC56465C46AA460B
:10472000139DD6E708230C930B910B99642800D0B6
:1047300084E60B9B5B0500D586E6B4E40722099B63
:1047400007339343013294469C44624609921A68A7
:104750005B6810009B4613005A46134307D10B9A1F
:104760001033110099430B91520500D5A1E60B9A25
:104770006123920600D541230022DBB20EA90A3B39
:104780008C4692460D9343461F3262445F46129513
:10479000A34655460400B24690460C9E13930DE086
:1047A0003032D2B2434601355A550023BB4200D1C4
:1047B00000E1202D00D100E104000F0032000023B1
:1047C00020003900FEF710FAD2B2092AE8D90D9B71
:1047D0009C466244D2B2E5E70B9A6123920600D56B
:1047E0004123DBB20EA90A3B1F228C460D93230006
:1047F00062445C461295170055469B46B2460C9E95
:1048000008E03033DBB201357B55B4420ED3202DA6
:104810000CD0040031002000FEF7A8F9CBB2092922
:10482000EFD90D9A94466344DBB2ECE756465C46FA
:10483000AA46129D3FE6099B1A0008CAD91713928F
:104840005A184A409246DA0F1292002B08D1802360
:1048500010220B99DB000B4091430B91002B2BD1C5
:104860000B9A6123920600D541230EAA1F27944676
:10487000DBB20A3B0D9567445D460993A346544657
:10488000B2460C9E08E03033DBB201357B55B442B2
:104890000ED3202D0CD0040031002000FEF766F965
:1048A000CBB20929EFD9099A94466344DBB2ECE70D
:1048B00056465C46AB460D9D0B9B2A0006930A9B11
:1048C00021000593434604930C9B08980393129B85
:1048D000013602935B46019316AB00934B46FEF7FD
:1048E0001FFE139B05000993FFF727FB02230C9380
:1048F0001AE7099B04CB92461293002A08D1802321
:1049000010220B99DB000B4091430B91002B2BD114
:104910000B9A6123920600D541230EAA1F279446C5
:10492000DBB20A3B0D9567445D460993A3465446A6
:10493000B2460C9E08E03033DBB201357B55B44201
:104940000ED3202D0CD0040031002000FEF70EF90C
:10495000CBB20929EFD9099A94466344DBB2ECE75C
:1049600056465C46AB460D9D0B9B2A0006930A9B60
:1049700021000593434604930C9B0898039300235E
:1049800002935B46019316AB00934B46FEF7C8FDBE
:10499000129B050009930136FFF7CFFAB44200D805
:1049A00071E6149B54460E960F97AA469846159E9C
:1049B000139D8EE6A64200D8FBE6139B564698460A
:1049C000AA465C46129D76E508C9D8171A184240D7
:1049D0000991FFF78AFB00230B9350E4099B04CB5A
:1049E0009346099359E52F00BBE50B9301E6063B7F
:1049F0000C939AE60CB410B584B006AC08CC0A004F
:104A00000094010004480394FFF772FA04B010BC4C
:104A100008BC02B01847C0467934001000B585B014
:104A20000391012102900093034813004A4202A916
:104A3000FFF75EFA05B000BDFD36001010B5094A5B
:104A40000300146884B0002C08D0012200910648AD
:104A5000524203A9A047012004B010BD00F0BCF9E8
:104A60000020F9E7C0350020ED36001000BEFDE75C
:104A7000094A03001068002805D00849C3188B4272
:104A800007D81360704706480449C31810608B426A
:104A9000F7D901204042F5E78831002000000420CA
:104AA000A0A6002010B5FFF7E1FFC04670B5FDF7E6
:104AB000EBFE074D074EB54209D20024013E761B9E
:104AC000B60808CD984723000134B342F9D170BD30
:104AD00074A301107CA30110030010B5080011009D
:104AE0001B68984710BDC046F0B546464F46D646AF
:104AF000C0B5437D80460E001700002B46D0002A2B
:104B00003FDD4B1E9946244B0125002400209A4688
:104B10000DE04B461B5D0D3B5A425341325DDBB20B
:104B20000A2A0BD02B00013401359F421ADD002CDC
:104B3000EFD14346325D1B7D0A2AF3D1002BF1D120
:104B4000A04204DA4346211A1B68301898474346AE
:104B500050461B6802219847013428002B0001357C
:104B60009F42E4DC874204DD4346391A1B68301853
:104B70009847F619013E33780D3B5A42534142465D
:104B80001375E0BCBA46B146A846F0BD03681100F3
:104B900030009847F5E7C04660A80110F0B5C6465A
:104BA0000C000968060000B5802906D04B1C236064
:104BB0006418267180BCB846F0BD0F4B1D68002DEF
:104BC00016D0231D98460D4F02E02D69002D0FD001
:104BD0002B68002BF9D03B68002B01D0AB42F4D1FD
:104BE000280041462268FFF77FFF2D69002DEFD195
:104BF00001230021DBE7C0467C3100208431002006
:104C0000F0B5DE4657464E464546E0B585B017003E
:104C10001C0006000D00FDF7E7FA0023314A1218C8
:104C20004B41002B59DB304908008A4615F04CFBFC
:104C300001906B1C03D1300015F042F90500002CE7
:104C400026D12A4B98462A4B1C68002C15D0002FE1
:104C500021D1284F02E02469002C0ED02368002BBC
:104C6000F9D03B68002B01D0A342F4D120002A00E8
:104C70003100C0472469002CF0D1019B002B28D1C2
:104C8000280005B0F0BCBB46B246A946A046F0BD20
:104C9000194B9846D7E7174B994602ABDF1D0A23FD
:104CA0009B4602E02469002CE7D02368002BF9D052
:104CB0004B461B68002B01D0A342F3D12A003100E0
:104CC0002000C0475B460122390020003B70C047EE
:104CD000E8E7504615F0A8FAD2E70122074B524206
:104CE000A1E7C04640420F00F81B0020D94A00103F
:104CF0007C31002084310020E94A0010FFFFFF7F53
:104D00000A4A1368002B05D10CE01A001B69103207
:104D1000002B07D09842F8D1002902D10369136013
:104D2000016170470029FCD01060FAE77C31002057
:104D300010B500F0B1F900F0F7FB012010BDC0463E
:104D4000F0B5CE46474680B583B06B460600DD1D04
:104D50002870FDF749FA00231A4A12184B41002B1C
:104D60002BDB19490800884615F0AEFA174B81462F
:104D70001C68002C14D0164F02E02469002C0FD0C0
:104D80002368002BF9D03B68002B01D0A342F4D15B
:104D9000200001222900FFF7A7FE2469002CEFD193
:104DA0004B46002B05D1300003B0C0BCB946B0461D
:104DB000F0BD404615F038FAF5E70122054B5242A6
:104DC000CFE7C04640420F00F81B00207C31002096
:104DD00084310020FFFFFF7F70B5040015F070F8EC
:104DE00001230100050001222000FFF709FF084B05
:104DF0001C68002C06D06368002B05D098472469F6
:104E0000002CF8D1280070BD2469002CF3D1F9E7FB
:104E10007C310020F0B5CE46474680B5A5B00400F1
:104E20000D00FDF7E1F900232A4A12184B41002B2F
:104E300049DB294E300015F047FA002307000393A1
:104E400022002B00254803A9FFF7E8FD039B8046BD
:104E5000002B14D1224B1C68002C06D06368002B59
:104E60000BD098472469002CF8D1002F27D1404659
:104E700025B0C0BCB946B046F0BD2469ECE7184B7C
:104E80001D689946002D22D0164C02E02D69002D98
:104E900011D02B68002BF9D02368002B01D09D4244
:104EA000F4D1039B28001A0004A90193FFF71CFE0C
:104EB0002D69002DEDD14B4603951C68CCE73000E1
:104EC00015F0B2F9D3E70122074B5242B1E703953F
:104ED000CBE7C04640420F00F81B00209D4B00105E
:104EE0007C31002084310020FFFFFF7F0FB400B52C
:104EF00083B004A901C90191FFF78CFF03B008BC7E
:104F000004B01847F0B50D1E15DD0E4B0D271A68BD
:104F10000D4B4519D31859424B410C495B005E5E5D
:104F200020210478A64207D093691942FCD10130B0
:104F30001460A842F5D1F0BD93691942FCD1176005
:104F4000F2E7C04654A600200080FCBF50A6002017
:104F500030B504000D1E24DD002010211A4B013C49
:104F60001A689369194217D1013093691942FCD12B
:104F7000136823548542F4D1144B1B68002B0AD0CC
:104F800050239363516B183B0B4011498C4662448C
:104F90001360002814D030BD0C4B1B68002BEFD1E0
:104FA000F7E70A4B1B68002B0AD05022064B1B6800
:104FB0009A63596B183A0A4005498C4663441A6053
:104FC00003204042E7E7C04654A6002028270020DF
:104FD00034100000064B10B51B68002B06D00021D2
:104FE000044A12689163044A1068984710BDC0468D
:104FF0002827002054A60020302700200822034B39
:1050000019688B691A42FCD17047C04654A600202B
:1050100070B51B4E1B4B32680500D31858424341F4
:1050200014331C00002D04D0174B1A68002A11D02D
:1050300070BD154E3368002BFAD000212000956317
:10504000FCF738F820001149FCF78AF9104B35605D
:105050001D60EDE71D600E4B200019600B49FCF749
:1050600061F801212000FCF725F8502233689A638B
:10507000596B183A0A4007498C4663441A60D7E7CF
:1050800054A600200080FCBF28270020D54F001028
:1050900030270020341000000D4B10B51B780D4B4D
:1050A0000D4C1B780D4B02211B780D4B002023600B
:1050B000FBF73EFE02210120FBF73AFEE1212068CA
:1050C0004902FDF759F901210648FFF719FE10BD05
:1050D000E0400510E440051054A60020E84005100B
:1050E00000400340001300207047C0460022014BDF
:1050F0001A70704792A600204B790020FF2B0BD12D
:105100008B79002B08D1CB79012B05D1082A03D943
:105110008A78024B09301A707047C04692A6002068
:105120000120704710B5012909D11549537910792B
:1051300009781B0203430020994202D010BD0120D0
:10514000FCE75378012B08D0022BF7D10020642212
:105150000021FDF7E3FA0120F0E7D37891781B02F4
:105160001943DB0507D54A0A100001231A407E3394
:105170001940FDF759FB01204A0A4042F5E7C046B5
:1051800092A6002000487047CCA8011070B5050019
:1051900014000120012909D153780020012B05D1E9
:1051A000637912791B021343072B00D070BD2100D5
:1051B0002800024A9F3301F069FAF7E7F0A80110CE
:1051C0000123037000487047ACA8011048780B78A1
:1051D0008A7800021843120410439622CB7810B547
:1051E0001B060343D200934200D010BD00220120D1
:1051F00011004042FDF718FB024B1860024B19608A
:105200007047C0462C2700203427002010B5024BE1
:105210001878FBF76DFF10BD93A60020154B70B5F5
:105220001A68002A22D0EFF3108172B610680028A5
:10523000FCD0BFF35F8F00220F48596002701B68DB
:10524000BFF35F8F1A6081F31088002400250B4E96
:105250003078FBF741FF002804D100240025290005
:10526000200070BD3078FBF743FFF8E7FA240025F3
:10527000A400ECE73C66002095A6002093A6002041
:1052800070B5040000200E0001F02AFB002835D084
:10529000002001F03BFB002830D0FCF7A5FF0023E5
:1052A000184A12184B41002B24DB174D280015F02B
:1052B0000BF8002822D0002001F012FB00280BD1AF
:1052C000012000210324404200F012FD6442280026
:1052D00014F0AAFF200070BD002001F017FB002889
:1052E000EED021003200002001F01CFB041EEED1A4
:1052F000033CECE70122054B5242D6E7032464420B
:10530000E8E7C04640420F0024A60020FFFFFF7FD1
:1053100010B5FCF769FF00230E4A12184B41002B11
:1053200013DB0D4C200014F0CFFF00280CD001201F
:105330000021404200F0DCFC002001F03DFB002891
:10534000F5D1200014F070FF10BD0122034B524232
:10535000E7E7C04640420F0024A60020FFFFFF7F82
:10536000F8B5DE46574680B505000C00FCF73CFF5B
:105370000023364A12184B41002B5ADB34490800EF
:105380008A4614F0A1FF002803D1C0BCBB46B24638
:10539000F8BD002001F0A4FA00284ED00026002C11
:1053A00043DD2C4B9B4614E0A919002001F040FB83
:1053B000070001200021404200F09AFC002001F08B
:1053C000FBFAFCF711FF234BF61918605960B44241
:1053D0002BDD002001F04EFBA71B0200B84200DDD0
:1053E0003A00002AE0D101200021404200F080FC78
:1053F000002001F0E1FA002001F072FA002814D038
:10540000002001F037FB0028E1D1FCF7EDFE5B4600
:105410000F001A685B68002184460F4812184B4140
:105420009F4202D8D3D19445D1D9504614F0FCFE06
:10543000ABE70122094B5242A0E700200021054BB7
:1054400018605960504614F0EFFE9EE740420F008E
:1054500024A60020D01D002020A10700FFFFFF7F11
:1054600030B52A4C85B00021200014F015FF00282B
:105470001CD1274B1A68002A16D0EFF3108172B6A0
:1054800010680028FCD0BFF35F8F012421485960C9
:1054900002781B68D2B20470BFF35F8F00201860DF
:1054A00081F31088002A17D005B030BD01200021FB
:1054B000404200F01DFC002001F028FA0500200009
:1054C00014F0B2FE002DEFD0134B1B68002BEBD075
:1054D000124A10689847E7E7FCF734FB0400FCF732
:1054E00083FEFA220023920012184B41002B09DBA5
:1054F0000121029100210191094920000091FCF74E
:10550000A7FBD1E70122074B5242F1E724A6002076
:105510003C66002095A600202C2700203427002080
:105520001D520010FFFFFF7FD02310B51B0684B073
:105530001C68FCF707FBFCF785FCA04202D00020AA
:1055400004B010BD294B002100201B7801F086FD1E
:1055500027480368002B41D00120FCF75BF8FF23AC
:10556000244C254920701840FBF7DCFD20780121F0
:10557000FBF7A0FD0520FBF7C3FD002821D1082281
:1055800000211E48FDF76CFFFCF7DCFA0400FCF775
:105590002BFEFA220023920012184B41002B20DB35
:1055A0000121029100210191154920000091FCF791
:1055B0004FFB0028C3DB13480121FFF7A1FB0120AB
:1055C000BEE70120FBF746FD01000C48FCF7A6F8FA
:1055D000002205200C49FBF7CFFDECE7FCF772F841
:1055E000BAE70122094B5242DAE7C046EC40051007
:1055F00024A6002093A60020615400103C660020E1
:105600001D520010181300200D520010FFFFFF7FE5
:105610000048704738AA011000487047E4A90110FB
:1056200070B5040017480378002B21D0002C06D158
:10563000C1241548154BA4004380048070BD052C7F
:105640001DD8134B1048A400E558811C002304E02A
:1056500001330A800231132B0ED0EA5CDCB2002A3F
:10566000F6D1C0230134E4B264009B001C43E4E79C
:10567000112100F01FF8D9E7CA24A400DDE70020BB
:10568000DCE7C0465CA600202831002009040000A9
:105690004CAA011010B5024800F0E0F810BDC04659
:1056A00000A5002010B508220149FDF7DFFE10BD5E
:1056B00000A5002030B54B1E012900D1A7E0664AA5
:1056C00011780D112C0030349F2900D9A2E004700C
:1056D000012B00D1BEE00F21147821400C003034A2
:1056E000092900DD98E04470022B00D1B2E0547823
:1056F0002511290030319F2C00D990E08170032BB7
:1057000000D1A7E00F2121400C003034092900DD31
:1057100087E0C470042B00D19CE094782511290007
:1057200030319F2C00D97FE00171052B00D191E031
:105730000F2121400C003034092900DD76E044714E
:10574000062B00D186E0D4782511290030319F2C1A
:1057500000D96EE08171072B00D17BE00F21214041
:105760000C003034092966DCC471082B00D171E0CB
:1057700014792511290030319F2C5FD80172092B33
:1057800068D00F2121400C003034092958DC4472C4
:105790000A2B5FD054792511290030319F2C52D823
:1057A00081720B2B56D00F2121400C003034092977
:1057B0004BDCC4720C2B4DD094792511290030316B
:1057C0009F2C00D9073101730D2B43D00F212140AD
:1057D0000C003034092901DD37310C0044730E2BE5
:1057E00038D0D1790C11220030329F2900D90732EC
:1057F00082730F2B2ED00F220A4011003731092A55
:1058000001DC30321100C173102B23D01030002383
:10581000037030BD07345AE737310C0063E70731B6
:105820006CE737310C0074E707317DE737310C0046
:1058300085E707318EE737310C0095E707319DE7A3
:1058400037310C00A3E70731AAE737310C00C472E7
:105850000C2BB1D1C018DAE700A5002030B5002527
:1058600089B004000922002101A80095FDF7F8FD88
:105870000922002105A80495FDF7F2FD4B236A4695
:105880006846137004A90D2214F0C6FC15210822E5
:1058900020006944FDF7EAFD09B030BDF8B500F01D
:1058A00045F90C23194DFF22AB6705201849FBF77A
:1058B00063FC184C402200212000FDF7D1FD402759
:1058C000002301262121144A66702783A2601360F9
:1058D00063545F31618445396354104A10496360F1
:1058E000E2602787A1620B606362E26214F0E4FC6D
:1058F00080239B052E64EB6490230A4A0120EA5022
:105900008022094B5202DA64F8BDC04600001150F3
:10591000950700208C3100208400105000011050A9
:105920008000105010D001000020115010B501214E
:105930000520FBF7BFFB10BD10B500220021024877
:1059400000F014F910BDC046AC310020044B1970B2
:10595000002904D080219023024A8902D150704747
:1059600087A60020002011500B785B0602D14B78EF
:10597000052B00D070478A78014B1A60FAE7C046C1
:1059800000001150F0B5C646C87800B58007830FF7
:105990001800012B61D08F780C794B797F211B0285
:1059A000394023434E00FC09334D32195201AA18E5
:1059B000977001276740577000275B055B0DD77014
:1059C0001383D076B846CA00012C32D02B4FBC4688
:1059D0008F016244BC46AC446746BA6047461760D4
:1059E000002932D0264AC90090466246414451609F
:1059F0003F223F339343022838D0224937190A689F
:105A00007F01D3180B602049EF19FA608B422FD821
:105A1000341964012D19EB7E1C499B064A4013433F
:105A200080220120120613436A68136080BCB846C6
:105A3000F0BD174FBC468F016244BC46AC4467467C
:105A4000BA6247461760002909D1002364012D1965
:105A50006B60104B0120EB60E8E70020E6E70B4AA3
:105A6000C9009046624641445162C1E75B00C4E709
:105A7000FCF704FFFA68CBE78C310020840010505B
:105A80000400105034660020FF0F1050000010502A
:105A9000800010500001105010B514F00DFC10BD26
:105AA00010B57F200C0020404000E40911000019CF
:105AB0001A00034B4001C01800F058F8012010BD37
:105AC0008C3100207F22130010B50B400A420BD00E
:105AD000C9098022580040180649400140181201A7
